{
  "contractName": "MyTestContract",
  "abi": [
    {
      "constant": true,
      "inputs": [
        {
          "name": "",
          "type": "address"
        }
      ],
      "name": "balances",
      "outputs": [
        {
          "name": "",
          "type": "uint256"
        }
      ],
      "payable": false,
      "stateMutability": "view",
      "type": "function"
    },
    {
      "constant": true,
      "inputs": [],
      "name": "total",
      "outputs": [
        {
          "name": "",
          "type": "uint256"
        }
      ],
      "payable": false,
      "stateMutability": "view",
      "type": "function"
    },
    {
      "inputs": [],
      "payable": false,
      "stateMutability": "nonpayable",
      "type": "constructor"
    },
    {
      "constant": false,
      "inputs": [],
      "name": "takeMony",
      "outputs": [],
      "payable": true,
      "stateMutability": "payable",
      "type": "function"
    },
    {
      "constant": true,
      "inputs": [],
      "name": "getBalance",
      "outputs": [
        {
          "name": "",
          "type": "uint256"
        }
      ],
      "payable": false,
      "stateMutability": "view",
      "type": "function"
    }
  ],
  "bytecode": "0x6060604052341561000f57600080fd5b33600260006101000a81548173ffffffffffffffffffffffffffffffffffffffff021916908373ffffffffffffffffffffffffffffffffffffffff160217905550737ba1ad487a503fc9b2ae00aed76fdacf09408137600360006101000a81548173ffffffffffffffffffffffffffffffffffffffff021916908373ffffffffffffffffffffffffffffffffffffffff16021790555073eb9b7e6fa6cd76082848b02b7bc73cbb670ff41a600460006101000a81548173ffffffffffffffffffffffffffffffffffffffff021916908373ffffffffffffffffffffffffffffffffffffffff1602179055506103c7806101096000396000f300606060405260043610610062576000357c0100000000000000000000000000000000000000000000000000000000900463ffffffff16806312065fe01461006757806327e235e3146100905780632ddbd13a146100dd578063cd1236a414610106575b600080fd5b341561007257600080fd5b61007a610110565b6040518082815260200191505060405180910390f35b341561009b57600080fd5b6100c7600480803573ffffffffffffffffffffffffffffffffffffffff1690602001909190505061012f565b6040518082815260200191505060405180910390f35b34156100e857600080fd5b6100f0610147565b6040518082815260200191505060405180910390f35b61010e61014d565b005b60003073ffffffffffffffffffffffffffffffffffffffff1631905090565b60016020528060005260406000206000915090505481565b60005481565b600360009054906101000a900473ffffffffffffffffffffffffffffffffffffffff1673ffffffffffffffffffffffffffffffffffffffff163373ffffffffffffffffffffffffffffffffffffffff1614806101f65750600460009054906101000a900473ffffffffffffffffffffffffffffffffffffffff1673ffffffffffffffffffffffffffffffffffffffff163373ffffffffffffffffffffffffffffffffffffffff16145b151561020157600080fd5b34600080828254019250508190555034600160003373ffffffffffffffffffffffffffffffffffffffff1673ffffffffffffffffffffffffffffffffffffffff16815260200190815260200160002060008282540192505081905550600060016000600360009054906101000a900473ffffffffffffffffffffffffffffffffffffffff1673ffffffffffffffffffffffffffffffffffffffff1673ffffffffffffffffffffffffffffffffffffffff1681526020019081526020016000205411801561032f5750600060016000600460009054906101000a900473ffffffffffffffffffffffffffffffffffffffff1673ffffffffffffffffffffffffffffffffffffffff1673ffffffffffffffffffffffffffffffffffffffff16815260200190815260200160002054115b1561039957600260009054906101000a900473ffffffffffffffffffffffffffffffffffffffff1673ffffffffffffffffffffffffffffffffffffffff166108fc6000549081150290604051600060405180830381858888f19350505050151561039857600080fd5b5b5600a165627a7a723058201ffaa515ba10d6d9a91f444a963c3e684c54e6df91d15f06d515b1c40ad77e780029",
  "source": "pragma solidity ^0.4.17;\r\n/**\r\n    very simple mony flow contract\r\n    Taher Elhossin\r\n */\r\n\r\ncontract MyTestContract {\r\n\r\n    uint256 public total;\r\n    mapping( address=>uint) public balances;\r\n    address owner;\r\n    address one;\r\n    address two;\r\n\r\n    // Construct to just track my contruct owner\r\n    function MyTestContract() {\r\n        owner =  msg.sender;\r\n        one =  0x7ba1ad487a503fc9b2ae00aed76fdacf09408137;\r\n        two  = 0xeb9b7e6fa6cd76082848b02b7bc73cbb670ff41a;\r\n    }\r\n\r\n    /**\r\n    send function take what ever value in the message and track it in total variable \r\n    Note: value of the message automatically added to contract public address global balance\r\n     */\r\n    function takeMony() public payable {   \r\n        require(msg.sender == one || msg.sender == two);\r\n        total += msg.value;\r\n        balances[msg.sender] += msg.value;\r\n        \r\n        if (balances[one] > 0 && balances[two] > 0) {\r\n            owner.transfer(total); \r\n        }\r\n    }\r\n\r\n    /**\r\n    Traverse balance of contract from glabal state not UTXO (thank you doctor Sameh :D )\r\n     */\r\n    function getBalance() public constant returns(uint256) {        \r\n        return this.balance;\r\n    }\r\n    \r\n}",
  "sourcePath": "J:\\eth-tokens\\nuexample\\contracts\\MyTestContract.sol",
  "compiler": {
    "name": "solc",
    "version": "0.4.19+commit.c4cbbb05.Emscripten.clang"
  },
  "schemaVersion": "2.0.0",
  "updatedAt": "2018-03-13T15:04:43.278Z"
}