{
  "contractName": "MyTestContract",
  "abi": [
    {
      "constant": true,
      "inputs": [],
      "name": "mybalance",
      "outputs": [
        {
          "name": "",
          "type": "uint256"
        }
      ],
      "payable": false,
      "stateMutability": "view",
      "type": "function"
    },
    {
      "inputs": [],
      "payable": false,
      "stateMutability": "nonpayable",
      "type": "constructor"
    },
    {
      "constant": false,
      "inputs": [],
      "name": "takeMony",
      "outputs": [],
      "payable": true,
      "stateMutability": "payable",
      "type": "function"
    },
    {
      "constant": true,
      "inputs": [],
      "name": "getBalance",
      "outputs": [
        {
          "name": "",
          "type": "uint256"
        }
      ],
      "payable": false,
      "stateMutability": "view",
      "type": "function"
    },
    {
      "constant": false,
      "inputs": [
        {
          "name": "add1",
          "type": "address"
        }
      ],
      "name": "name",
      "outputs": [],
      "payable": true,
      "stateMutability": "payable",
      "type": "function"
    }
  ],
  "bytecode": "0x6060604052341561000f57600080fd5b33600160006101000a81548173ffffffffffffffffffffffffffffffffffffffff021916908373ffffffffffffffffffffffffffffffffffffffff1602179055506101f48061005f6000396000f300606060405260043610610062576000357c0100000000000000000000000000000000000000000000000000000000900463ffffffff168063019848921461006757806312065fe014610095578063ac19a2a9146100be578063cd1236a4146100e7575b600080fd5b610093600480803573ffffffffffffffffffffffffffffffffffffffff169060200190919050506100f1565b005b34156100a057600080fd5b6100a8610192565b6040518082815260200191505060405180910390f35b34156100c957600080fd5b6100d16101b1565b6040518082815260200191505060405180910390f35b6100ef6101b7565b005b600160009054906101000a900473ffffffffffffffffffffffffffffffffffffffff1673ffffffffffffffffffffffffffffffffffffffff163373ffffffffffffffffffffffffffffffffffffffff1614151561014d57600080fd5b8073ffffffffffffffffffffffffffffffffffffffff166108fc6000549081150290604051600060405180830381858888f19350505050151561018f57600080fd5b50565b60003073ffffffffffffffffffffffffffffffffffffffff1631905090565b60005481565b3460008082825401925050819055505600a165627a7a723058207659b7276b532839b60c975871a156914647e269ab2c61f7c3abc90aac693e870029",
  "source": "pragma solidity ^0.4.17;\r\n\r\ncontract MyTestContract {\r\n\r\n    uint256 public mybalance;\r\n    address owner;\r\n\r\n    function MyTestContract() {\r\n        owner =  msg.sender;\r\n    }\r\n\r\n    function takeMony() public payable {\r\n        \r\n        mybalance += msg.value; \r\n\r\n    }\r\n\r\n    function getBalance() public constant returns(uint256) {\r\n        \r\n        return this.balance;\r\n    }\r\n\r\n    function name(address add1) public payable {\r\n        require(msg.sender == owner);\r\n        \r\n        add1.transfer(mybalance); \r\n       // add2.transfer(balance/2);\r\n                   \r\n    }    \r\n    \r\n}",
  "sourcePath": "J:\\eth-tokens\\nuexample\\contracts\\MyTestContract.sol",
  "compiler": {
    "name": "solc",
    "version": "0.4.19+commit.c4cbbb05.Emscripten.clang"
  },
  "schemaVersion": "2.0.0",
  "updatedAt": "2018-03-11T16:30:10.920Z"
}