{
  "contractName": "MyTestContract",
  "abi": [
    {
      "constant": true,
      "inputs": [],
      "name": "total",
      "outputs": [
        {
          "name": "",
          "type": "uint256"
        }
      ],
      "payable": false,
      "stateMutability": "view",
      "type": "function"
    },
    {
      "inputs": [],
      "payable": false,
      "stateMutability": "nonpayable",
      "type": "constructor"
    },
    {
      "constant": false,
      "inputs": [],
      "name": "takeMony",
      "outputs": [],
      "payable": true,
      "stateMutability": "payable",
      "type": "function"
    },
    {
      "constant": true,
      "inputs": [],
      "name": "getBalance",
      "outputs": [
        {
          "name": "",
          "type": "uint256"
        }
      ],
      "payable": false,
      "stateMutability": "view",
      "type": "function"
    },
    {
      "constant": false,
      "inputs": [
        {
          "name": "add1",
          "type": "address"
        }
      ],
      "name": "payMoneyFor",
      "outputs": [],
      "payable": true,
      "stateMutability": "payable",
      "type": "function"
    }
  ],
  "bytecode": "0x6060604052341561000f57600080fd5b33600160006101000a81548173ffffffffffffffffffffffffffffffffffffffff021916908373ffffffffffffffffffffffffffffffffffffffff1602179055506101f48061005f6000396000f300606060405260043610610062576000357c0100000000000000000000000000000000000000000000000000000000900463ffffffff16806312065fe0146100675780632ddbd13a146100905780638de94278146100b9578063cd1236a4146100e7575b600080fd5b341561007257600080fd5b61007a6100f1565b6040518082815260200191505060405180910390f35b341561009b57600080fd5b6100a3610110565b6040518082815260200191505060405180910390f35b6100e5600480803573ffffffffffffffffffffffffffffffffffffffff16906020019091905050610116565b005b6100ef6101b7565b005b60003073ffffffffffffffffffffffffffffffffffffffff1631905090565b60005481565b600160009054906101000a900473ffffffffffffffffffffffffffffffffffffffff1673ffffffffffffffffffffffffffffffffffffffff163373ffffffffffffffffffffffffffffffffffffffff1614151561017257600080fd5b8073ffffffffffffffffffffffffffffffffffffffff166108fc6000549081150290604051600060405180830381858888f1935050505015156101b457600080fd5b50565b3460008082825401925050819055505600a165627a7a72305820c0f92e7f2a074f347cbf7479ad04a1b76ea8dca7376e9ad2e9e628541bcc4e090029",
  "source": "pragma solidity ^0.4.17;\r\n/**\r\n    very simple mony flow contract\r\n    Taher Elhossin\r\n */\r\n\r\ncontract MyTestContract {\r\n\r\n    uint256 public total;\r\n    address owner;\r\n\r\n    // Construct to just track my contruct owner\r\n    function MyTestContract() {\r\n        owner =  msg.sender;\r\n    }\r\n\r\n    /**\r\n    send function take what ever value in the message and track it in total variable \r\n    Note: value of the message automatically added to contract public address global balance\r\n     */\r\n    function takeMony() public payable {       \r\n        total += msg.value; \r\n    }\r\n\r\n    /**\r\n    Traverse balance of contract from glabal state not UTXO (thank you doctor Sameh :D )\r\n     */\r\n    function getBalance() public constant returns(uint256) {        \r\n        return this.balance;\r\n    }\r\n\r\n    /**\r\n    Transfer money to sent address\r\n     */\r\n    function payMoneyFor(address add1) public payable {\r\n        require(msg.sender == owner);       \r\n        add1.transfer(total); \r\n                   \r\n    }    \r\n    \r\n}",
  "sourcePath": "J:\\eth-tokens\\nuexample\\contracts\\MyTestContract.sol",
  "compiler": {
    "name": "solc",
    "version": "0.4.19+commit.c4cbbb05.Emscripten.clang"
  },
  "schemaVersion": "2.0.0",
  "updatedAt": "2018-03-11T17:41:44.497Z"
}